{
  "_format": "hh-sol-artifact-1",
  "contractName": "PERC20Sample",
  "sourceName": "contracts/PERC20Sample.sol",
  "abi": [
    {
      "inputs": [],
      "stateMutability": "nonpayable",
      "type": "constructor"
    },
    {
      "inputs": [
        {
          "internalType": "address",
          "name": "owner",
          "type": "address"
        },
        {
          "internalType": "address",
          "name": "spender",
          "type": "address"
        }
      ],
      "name": "allowance",
      "outputs": [
        {
          "internalType": "uint256",
          "name": "",
          "type": "uint256"
        }
      ],
      "stateMutability": "view",
      "type": "function"
    },
    {
      "inputs": [
        {
          "internalType": "address",
          "name": "spender",
          "type": "address"
        },
        {
          "internalType": "uint256",
          "name": "amount",
          "type": "uint256"
        }
      ],
      "name": "approve",
      "outputs": [
        {
          "internalType": "bool",
          "name": "",
          "type": "bool"
        }
      ],
      "stateMutability": "nonpayable",
      "type": "function"
    },
    {
      "inputs": [
        {
          "internalType": "address",
          "name": "account",
          "type": "address"
        }
      ],
      "name": "balanceOf",
      "outputs": [
        {
          "internalType": "uint256",
          "name": "",
          "type": "uint256"
        }
      ],
      "stateMutability": "view",
      "type": "function"
    },
    {
      "inputs": [],
      "name": "decimals",
      "outputs": [
        {
          "internalType": "uint8",
          "name": "",
          "type": "uint8"
        }
      ],
      "stateMutability": "view",
      "type": "function"
    },
    {
      "inputs": [
        {
          "internalType": "address",
          "name": "spender",
          "type": "address"
        },
        {
          "internalType": "uint256",
          "name": "subtractedValue",
          "type": "uint256"
        }
      ],
      "name": "decreaseAllowance",
      "outputs": [
        {
          "internalType": "bool",
          "name": "",
          "type": "bool"
        }
      ],
      "stateMutability": "nonpayable",
      "type": "function"
    },
    {
      "inputs": [
        {
          "internalType": "address",
          "name": "spender",
          "type": "address"
        },
        {
          "internalType": "uint256",
          "name": "addedValue",
          "type": "uint256"
        }
      ],
      "name": "increaseAllowance",
      "outputs": [
        {
          "internalType": "bool",
          "name": "",
          "type": "bool"
        }
      ],
      "stateMutability": "nonpayable",
      "type": "function"
    },
    {
      "inputs": [],
      "name": "mint100tokens",
      "outputs": [],
      "stateMutability": "nonpayable",
      "type": "function"
    },
    {
      "inputs": [],
      "name": "name",
      "outputs": [
        {
          "internalType": "string",
          "name": "",
          "type": "string"
        }
      ],
      "stateMutability": "view",
      "type": "function"
    },
    {
      "inputs": [],
      "name": "symbol",
      "outputs": [
        {
          "internalType": "string",
          "name": "",
          "type": "string"
        }
      ],
      "stateMutability": "view",
      "type": "function"
    },
    {
      "inputs": [],
      "name": "totalSupply",
      "outputs": [
        {
          "internalType": "uint256",
          "name": "",
          "type": "uint256"
        }
      ],
      "stateMutability": "view",
      "type": "function"
    },
    {
      "inputs": [
        {
          "internalType": "address",
          "name": "recipient",
          "type": "address"
        },
        {
          "internalType": "uint256",
          "name": "amount",
          "type": "uint256"
        }
      ],
      "name": "transfer",
      "outputs": [
        {
          "internalType": "bool",
          "name": "",
          "type": "bool"
        }
      ],
      "stateMutability": "nonpayable",
      "type": "function"
    },
    {
      "inputs": [
        {
          "internalType": "address",
          "name": "sender",
          "type": "address"
        },
        {
          "internalType": "address",
          "name": "recipient",
          "type": "address"
        },
        {
          "internalType": "uint256",
          "name": "amount",
          "type": "uint256"
        }
      ],
      "name": "transferFrom",
      "outputs": [
        {
          "internalType": "bool",
          "name": "",
          "type": "bool"
        }
      ],
      "stateMutability": "nonpayable",
      "type": "function"
    }
  ],
  "bytecode": "0x60806040523480156200001157600080fd5b506040518060400160405280600481526020017f50484154000000000000000000000000000000000000000000000000000000008152506040518060400160405280600381526020017f464154000000000000000000000000000000000000000000000000000000000081525081600390816200008f919062000324565b508060049081620000a1919062000324565b5050506200040b565b600081519050919050565b7f4e487b7100000000000000000000000000000000000000000000000000000000600052604160045260246000fd5b7f4e487b7100000000000000000000000000000000000000000000000000000000600052602260045260246000fd5b600060028204905060018216806200012c57607f821691505b602082108103620001425762000141620000e4565b5b50919050565b60008190508160005260206000209050919050565b60006020601f8301049050919050565b600082821b905092915050565b600060088302620001ac7fffffffffffffffffffffffffffffffffffffffffffffffffffffffffffffffff826200016d565b620001b886836200016d565b95508019841693508086168417925050509392505050565b6000819050919050565b6000819050919050565b600062000205620001ff620001f984620001d0565b620001da565b620001d0565b9050919050565b6000819050919050565b6200022183620001e4565b6200023962000230826200020c565b8484546200017a565b825550505050565b600090565b6200025062000241565b6200025d81848462000216565b505050565b5b8181101562000285576200027960008262000246565b60018101905062000263565b5050565b601f821115620002d4576200029e8162000148565b620002a9846200015d565b81016020851015620002b9578190505b620002d1620002c8856200015d565b83018262000262565b50505b505050565b600082821c905092915050565b6000620002f960001984600802620002d9565b1980831691505092915050565b6000620003148383620002e6565b9150826002028217905092915050565b6200032f82620000aa565b67ffffffffffffffff8111156200034b576200034a620000b5565b5b62000357825462000113565b6200036482828562000289565b600060209050601f8311600181146200039c576000841562000387578287015190505b62000393858262000306565b86555062000403565b601f198416620003ac8662000148565b60005b82811015620003d657848901518255600182019150602085019450602081019050620003af565b86831015620003f65784890151620003f2601f891682620002e6565b8355505b6001600288020188555050505b505050505050565b6115ad806200041b6000396000f3fe608060405234801561001057600080fd5b50600436106100b45760003560e01c80633950935111610071578063395093511461017d57806370a08231146101ad57806395d89b41146101dd578063a457c2d7146101fb578063a9059cbb1461022b578063dd62ed3e1461025b576100b4565b806306fdde03146100b9578063095ea7b3146100d757806318160ddd1461010757806323b872dd14610125578063313ce5671461015557806332c5e62714610173575b600080fd5b6100c161028b565b6040516100ce9190610d66565b60405180910390f35b6100f160048036038101906100ec9190610e21565b61031d565b6040516100fe9190610e7c565b60405180910390f35b61010f61033b565b60405161011c9190610ea6565b60405180910390f35b61013f600480360381019061013a9190610ec1565b610345565b60405161014c9190610e7c565b60405180910390f35b61015d61043d565b60405161016a9190610f30565b60405180910390f35b61017b610446565b005b61019760048036038101906101929190610e21565b61045b565b6040516101a49190610e7c565b60405180910390f35b6101c760048036038101906101c29190610f4b565b610507565b6040516101d49190610ea6565b60405180910390f35b6101e56105bd565b6040516101f29190610d66565b60405180910390f35b61021560048036038101906102109190610e21565b61064f565b6040516102229190610e7c565b60405180910390f35b61024560048036038101906102409190610e21565b61073a565b6040516102529190610e7c565b60405180910390f35b61027560048036038101906102709190610f78565b610758565b6040516102829190610ea6565b60405180910390f35b60606003805461029a90610fe7565b80601f01602080910402602001604051908101604052809291908181526020018280546102c690610fe7565b80156103135780601f106102e857610100808354040283529160200191610313565b820191906000526020600020905b8154815290600101906020018083116102f657829003601f168201915b5050505050905090565b600061033161032a61084d565b8484610855565b6001905092915050565b6000600254905090565b60006103528484846109b9565b6000600160008673ffffffffffffffffffffffffffffffffffffffff1673ffffffffffffffffffffffffffffffffffffffff168152602001908152602001600020600061039d61084d565b73ffffffffffffffffffffffffffffffffffffffff1673ffffffffffffffffffffffffffffffffffffffff1681526020019081526020016000205490508281101561041d576040517f08c379a00000000000000000000000000000000000000000000000000000000081526004016104149061108a565b60405180910390fd5b6104318561042961084d565b858403610855565b60019150509392505050565b60006012905090565b6104593368056bc75e2d63100000610bd3565b565b60006104fd61046861084d565b84846001600061047661084d565b73ffffffffffffffffffffffffffffffffffffffff1673ffffffffffffffffffffffffffffffffffffffff16815260200190815260200160002060008873ffffffffffffffffffffffffffffffffffffffff1673ffffffffffffffffffffffffffffffffffffffff168152602001908152602001600020546104f891906110d9565b610855565b6001905092915050565b60008173ffffffffffffffffffffffffffffffffffffffff163373ffffffffffffffffffffffffffffffffffffffff1614610577576040517f08c379a000000000000000000000000000000000000000000000000000000000815260040161056e9061117f565b60405180910390fd5b6000808373ffffffffffffffffffffffffffffffffffffffff1673ffffffffffffffffffffffffffffffffffffffff168152602001908152602001600020549050919050565b6060600480546105cc90610fe7565b80601f01602080910402602001604051908101604052809291908181526020018280546105f890610fe7565b80156106455780601f1061061a57610100808354040283529160200191610645565b820191906000526020600020905b81548152906001019060200180831161062857829003601f168201915b5050505050905090565b6000806001600061065e61084d565b73ffffffffffffffffffffffffffffffffffffffff1673ffffffffffffffffffffffffffffffffffffffff16815260200190815260200160002060008573ffffffffffffffffffffffffffffffffffffffff1673ffffffffffffffffffffffffffffffffffffffff1681526020019081526020016000205490508281101561071b576040517f08c379a000000000000000000000000000000000000000000000000000000000815260040161071290611211565b60405180910390fd5b61072f61072661084d565b85858403610855565b600191505092915050565b600061074e61074761084d565b84846109b9565b6001905092915050565b60008173ffffffffffffffffffffffffffffffffffffffff163373ffffffffffffffffffffffffffffffffffffffff16146107c8576040517f08c379a00000000000000000000000000000000000000000000000000000000081526004016107bf9061117f565b60405180910390fd5b600160008473ffffffffffffffffffffffffffffffffffffffff1673ffffffffffffffffffffffffffffffffffffffff16815260200190815260200160002060008373ffffffffffffffffffffffffffffffffffffffff1673ffffffffffffffffffffffffffffffffffffffff16815260200190815260200160002054905092915050565b600033905090565b600073ffffffffffffffffffffffffffffffffffffffff168373ffffffffffffffffffffffffffffffffffffffff16036108c4576040517f08c379a00000000000000000000000000000000000000000000000000000000081526004016108bb906112a3565b60405180910390fd5b600073ffffffffffffffffffffffffffffffffffffffff168273ffffffffffffffffffffffffffffffffffffffff1603610933576040517f08c379a000000000000000000000000000000000000000000000000000000000815260040161092a90611335565b60405180910390fd5b80600160008573ffffffffffffffffffffffffffffffffffffffff1673ffffffffffffffffffffffffffffffffffffffff16815260200190815260200160002060008473ffffffffffffffffffffffffffffffffffffffff1673ffffffffffffffffffffffffffffffffffffffff16815260200190815260200160002081905550505050565b600073ffffffffffffffffffffffffffffffffffffffff168373ffffffffffffffffffffffffffffffffffffffff1603610a28576040517f08c379a0000000000000000000000000000000000000000000000000000000008152600401610a1f906113c7565b60405180910390fd5b600073ffffffffffffffffffffffffffffffffffffffff168273ffffffffffffffffffffffffffffffffffffffff1603610a97576040517f08c379a0000000000000000000000000000000000000000000000000000000008152600401610a8e90611459565b60405180910390fd5b610aa2838383610ccc565b60008060008573ffffffffffffffffffffffffffffffffffffffff1673ffffffffffffffffffffffffffffffffffffffff16815260200190815260200160002054905081811015610b28576040517f08c379a0000000000000000000000000000000000000000000000000000000008152600401610b1f906114eb565b60405180910390fd5b8181036000808673ffffffffffffffffffffffffffffffffffffffff1673ffffffffffffffffffffffffffffffffffffffff16815260200190815260200160002081905550816000808573ffffffffffffffffffffffffffffffffffffffff1673ffffffffffffffffffffffffffffffffffffffff1681526020019081526020016000206000828254610bbb91906110d9565b92505081905550610bcd848484610cd1565b50505050565b600073ffffffffffffffffffffffffffffffffffffffff168273ffffffffffffffffffffffffffffffffffffffff1603610c42576040517f08c379a0000000000000000000000000000000000000000000000000000000008152600401610c3990611557565b60405180910390fd5b610c4e60008383610ccc565b8060026000828254610c6091906110d9565b92505081905550806000808473ffffffffffffffffffffffffffffffffffffffff1673ffffffffffffffffffffffffffffffffffffffff1681526020019081526020016000206000828254610cb591906110d9565b92505081905550610cc860008383610cd1565b5050565b505050565b505050565b600081519050919050565b600082825260208201905092915050565b60005b83811015610d10578082015181840152602081019050610cf5565b60008484015250505050565b6000601f19601f8301169050919050565b6000610d3882610cd6565b610d428185610ce1565b9350610d52818560208601610cf2565b610d5b81610d1c565b840191505092915050565b60006020820190508181036000830152610d808184610d2d565b905092915050565b600080fd5b600073ffffffffffffffffffffffffffffffffffffffff82169050919050565b6000610db882610d8d565b9050919050565b610dc881610dad565b8114610dd357600080fd5b50565b600081359050610de581610dbf565b92915050565b6000819050919050565b610dfe81610deb565b8114610e0957600080fd5b50565b600081359050610e1b81610df5565b92915050565b60008060408385031215610e3857610e37610d88565b5b6000610e4685828601610dd6565b9250506020610e5785828601610e0c565b9150509250929050565b60008115159050919050565b610e7681610e61565b82525050565b6000602082019050610e916000830184610e6d565b92915050565b610ea081610deb565b82525050565b6000602082019050610ebb6000830184610e97565b92915050565b600080600060608486031215610eda57610ed9610d88565b5b6000610ee886828701610dd6565b9350506020610ef986828701610dd6565b9250506040610f0a86828701610e0c565b9150509250925092565b600060ff82169050919050565b610f2a81610f14565b82525050565b6000602082019050610f456000830184610f21565b92915050565b600060208284031215610f6157610f60610d88565b5b6000610f6f84828501610dd6565b91505092915050565b60008060408385031215610f8f57610f8e610d88565b5b6000610f9d85828601610dd6565b9250506020610fae85828601610dd6565b9150509250929050565b7f4e487b7100000000000000000000000000000000000000000000000000000000600052602260045260246000fd5b60006002820490506001821680610fff57607f821691505b60208210810361101257611011610fb8565b5b50919050565b7f5045524332303a207472616e7366657220616d6f756e7420657863656564732060008201527f616c6c6f77616e63650000000000000000000000000000000000000000000000602082015250565b6000611074602983610ce1565b915061107f82611018565b604082019050919050565b600060208201905081810360008301526110a381611067565b9050919050565b7f4e487b7100000000000000000000000000000000000000000000000000000000600052601160045260246000fd5b60006110e482610deb565b91506110ef83610deb565b9250828201905080821115611107576111066110aa565b5b92915050565b7f50455243323053616d706c653a206d73672e73656e64657220213d206163636f60008201527f756e740000000000000000000000000000000000000000000000000000000000602082015250565b6000611169602383610ce1565b91506111748261110d565b604082019050919050565b600060208201905081810360008301526111988161115c565b9050919050565b7f5045524332303a2064656372656173656420616c6c6f77616e63652062656c6f60008201527f77207a65726f0000000000000000000000000000000000000000000000000000602082015250565b60006111fb602683610ce1565b91506112068261119f565b604082019050919050565b6000602082019050818103600083015261122a816111ee565b9050919050565b7f5045524332303a20617070726f76652066726f6d20746865207a65726f20616460008201527f6472657373000000000000000000000000000000000000000000000000000000602082015250565b600061128d602583610ce1565b915061129882611231565b604082019050919050565b600060208201905081810360008301526112bc81611280565b9050919050565b7f5045524332303a20617070726f766520746f20746865207a65726f206164647260008201527f6573730000000000000000000000000000000000000000000000000000000000602082015250565b600061131f602383610ce1565b915061132a826112c3565b604082019050919050565b6000602082019050818103600083015261134e81611312565b9050919050565b7f5045524332303a207472616e736665722066726f6d20746865207a65726f206160008201527f6464726573730000000000000000000000000000000000000000000000000000602082015250565b60006113b1602683610ce1565b91506113bc82611355565b604082019050919050565b600060208201905081810360008301526113e0816113a4565b9050919050565b7f5045524332303a207472616e7366657220746f20746865207a65726f2061646460008201527f7265737300000000000000000000000000000000000000000000000000000000602082015250565b6000611443602483610ce1565b915061144e826113e7565b604082019050919050565b6000602082019050818103600083015261147281611436565b9050919050565b7f5045524332303a207472616e7366657220616d6f756e7420657863656564732060008201527f62616c616e636500000000000000000000000000000000000000000000000000602082015250565b60006114d5602783610ce1565b91506114e082611479565b604082019050919050565b60006020820190508181036000830152611504816114c8565b9050919050565b7f5045524332303a206d696e7420746f20746865207a65726f2061646472657373600082015250565b6000611541602083610ce1565b915061154c8261150b565b602082019050919050565b6000602082019050818103600083015261157081611534565b905091905056fea2646970667358221220242388279b5f0d8d5095ea5e6212edaeb28b7e1cf38a00d3abb6b6fa9ad1336d64736f6c63430008140033",
  "linkReferences": {},
  "deployedLinkReferences": {}
}